S01400002E2F44656275672F736E616B652E7331395B
S315200000000248854600F0D2FBFEE7C04600C001202C
S3152000001080B584B000AF786039607B683A681A6032
S315200000200023FB6006E07B68180000F00AF8FB68F6
S315200000300133FB60FB68092BF5DDC046BD4604B0E5
S3152000004080BD80B584B000AF78607B681B68194A94
S3152000005053435A1C7B681A607B681B68FB6000232D
S31520000060BB601EE0FA6813001B019B181B019B183E
S315200000701B019B1A9B009B1A1B019B185B009B185C
S315200000805B019B1ADA01D31AFB60FB685B0CFA68EA
S315200000905340FB60BB68FA68D318FB60BB6801332A
S315200000A0BB60BB68022BDDDDFB681800BD4604B0D3
S315200000B080BDC0468967452390B58BB000AF786078
S315200000C01D4B7B62AA23DB053B621E217B18FF2288
S315200000D01A801C203B18F02212011A80164BBB6195
S315200000E0AA231B047B617B681B683B613B697A6A98
S315200000F01A403B6A1A437B681A600E243B197A68B9
S3152000010092881A803B197A181B88128813409AB253
S315200001103B181B8813439AB27B689A807B68DB68FE
S31520000120BB60BB68BA691A407B691A437B68DA6090
S31520000130C046BD460BB090BDFFFF000080B582B023
S3152000014000AF78600A00FB1C1A70FB1C1B785BB2A0
S3152000015008229A401300DAB27B685A75C046BD461B
S3152000016002B080BD80B584B000AF78607B685B7CD0
S31520000170DAB20F23FB180F210A401A700E23FB1840
S3152000018000221A700EE00E217B181B785BB2DBB2C0
S315200001900133DAB27B181A700F22BB18BA181278FC
S315200001A052081A700F23FB181B78002BEBD10E2355
S315200001B0FB181B785BB21800BD4604B080BD90B515
S315200001C087B000AF0200FB1D1A70BB1D0A1C1A70F7
S315200001D00823FB18164A13CA13C312681A60FB1D9C
S315200001E01B785BB2002B1DDDFB1D1B785BB2042B3D
S315200001F018DCBB1D1B785BB2002B13DDBB1D1B78E7
S315200002005BB2042B0EDCFB1D1B785BB25A1EBB1D9A
S315200002101B785BB2013B0821791892008A18D35CBF
S315200002205BB200E000231800BD4607B090BDC04673
S31520000230C8150020B0B584B000AF78600F23FB1836
S3152000024001221A702DE00F23FB1800229A567B6894
S3152000025011001800FFF772FF0E257C197B68180025
S31520000260FFF780FF030023707B191B785BB2002BFE
S315200002700ED00E23FB1800229A560F23FB181B784C
S315200002805BB211001800FFF79AFF0300DBB20FE004
S315200002900F217B181B785BB2DBB20133DAB27B18F5
S315200002A01A700F23FB181B785BB2042BCBDD1023AF
S315200002B01800BD4604B0B0BD80B584B000AF7860EC
S315200002C03B0019807B685B680133FB607B68DB68D9
S315200002D0FA689A4201DB0023FB607B689B68FA6818
S315200002E09A4202D101235B4215E07B681A687B683B
S315200002F05B685B00D3183A0012781A707B681A681C
S315200003007B685B685B00D3183A0052785A707B682A
S31520000310FA685A6000231800BD4604B080BD80B537
S3152000032084B000AF786039607B685A687B689B68C8
S315200003309A4202D101235B4220E07B685B68013B45
S31520000340FB60FB68002B03DA7B68DB68013BFB6004
S315200003507B68FA685A607B681A687B685B685B0012
S31520000360D3181A783B681A707B681A687B685B68B2
S315200003705B00D3185A783B685A7000231800BD4694
S3152000038004B080BD80B584B000AF78603B00198092
S315200003907B689B68013BFB60FB68002B03DA7B686C
S315200003A0DB68013BFB607B685B68FA689A4202D196
S315200003B001235B4215E07B681A687B689B685B00BB
S315200003C0D3183A0012781A707B681A687B689B6883
S315200003D05B00D3183A0052785A707B68FA689A60A4
S315200003E000231800BD4604B080BD80B584B000AFA0
S315200003F0786039607B685A687B689B689A4202D12C
S3152000040001235B4220E07B689B680133FB607B68AD
S31520000410DB68FA689A4201DB0023FB607B68FA6896
S315200004209A607B681A687B689B685B00D3181A7889
S315200004303B681A707B681A687B689B685B00D318D8
S315200004405A783B685A7000231800BD4604B080BD18
S31520000450B0B584B000AF7860194B1800FFF7F1FDF6
S3152000046002000F2004003B181A70154B1800FFF7E6
S31520000470E8FD02000E257B191A7020003B183A1859
S3152000048012787F210A401A707B197A1912783F2137
S315200004900A401A707B19197804003B181B78012230
S315200004A0180000F011FD074B20003A1812781A7038
S315200004B0044B7A1912785A70C046BD4604B0B0BDB6
S315200004C0941500202815002090B587B000AF7860DD
S315200004D0102108007B187A680221525A1A800100DE
S315200004E07B181A787B681B785BB2DBB2D318DAB23A
S315200004F07B181A707B185A787B685B785BB2DBB204
S31520000500D318DAB27B185A707B181B785BB2002B93
S3152000051004DB1023FB185B783F2B03D94D4B0122BC
S315200005201A7094E07B685B689B687B6123E01023EC
S31520000530FB181A787B685B6819687B695B00CB18A7
S315200005401B789A420FD11023FB185A787B685B6878
S3152000055019687B695B00CB185B789A4203D13D4BC7
S3152000056001221A7073E07B6901333221180000F0F2
S31520000570C7FF0B007B617B685B685B687A699A4280
S31520000580D5D11323FB1800221A701023FB181A78D2
S31520000590314B1B789A4224D11023FB185A782E4BC4
S315200005A05B789A421DD11323FB1801221A702B4B1C
S315200005B01B681800FFF74CFF294B1B780133DAB272
S315200005C0274B1A700121012000F0A7FA254B1800AD
S315200005D000F0DBFA224B1B783033DBB2180000F038
S315200005E0C4FA7B6858687B6802229A5A0023120450
S315200005F0120C1B0C1B0413431900FFF75DFE7B68CE
S3152000060002211022BA1812885A527B6898787B6881
S31520000610DB780122190000F057FC1323FB181B7806
S3152000062001225340DBB2002B11D07B685B680C2281
S315200006301400BA1811001800FFF7D7FE2200BB18C5
S315200006401878BB185B780022190000F03DFCBD46E7
S3152000065007B090BD241500202815002094150020F1
S3152000066090150020D815002080B582B000AF7860A4
S315200006707B6898787B68DB780122190000F024FCDF
S31520000680C046BD4602B080BD80B584B000AF78605C
S315200006907B6801229A560C217B181A707B681B787E
S315200006A05BB2DBB25B42DBB25AB27B185A707B6814
S315200006B07A1812881A80C046BD4604B080BD80B51F
S315200006C084B000AF78607B685B785BB2DBB25B425C
S315200006D0DBB25AB20C217B181A707B6800229A561C
S315200006E07B185A707B687A1812881A80C046BD46D5
S315200006F004B080BD80B500AF00F058FD0C4B1A68E1
S315200007000B4B8021C9010A431A600A4B0A4A1A6018
S315200007100A4B00211800FFF77BFC00F005FD00F0D6
S31520000720A2FC074B1800FFF7C7FCC046BD4680BD9C
S315200007304438024008ED00E000C001209415002056
S31520000740000C024080B582B000AF00F0CFF900F077
S3152000075057FC114B0221114A12885A520E4B5B68E4
S3152000076000229A600C4B5B6800225A600A4B58683C
S315200007703B1D0B4A12881A803B1D1968FFF702FEA3
S31520000780084B1B681800FFF763FE074B01221A70FF
S31520000790C046BD4602B080BDB0150020E41500203D
S315200007A0E8150020941500209015002090B583B000
S315200007B000AFFFF79FFFFFF7C5FF324BDB68314ADB
S315200007C0100098470121012000F0A7F92E4B1800B0
S315200007D000F0DBF90221012000F09FF92B4B1800D5
S315200007E000F0D3F9C0462A4B1800FFF723FD03007B
S315200007F0052BF8D100F07AF9264B180000F0C5F940
S31520000800204B9B681F4A10009847234B180000F086
S315200008109DFC224B1B78DBB2002B00D1F9E7C046AA
S31520000820FC1D1B4B1800FFF705FD03002370FB1D65
S315200008301B78042B02D0062B06D00BE0114B1B692C
S31520000840104A1000984705E00E4B5B690D4A1000D0
S315200008509847C046124B1B78002BD1D0012101208E
S3152000086000F05BF900F042F90E4B180000F08DF90C
S315200008700D4B180000F0A6FD094B00221A70C04649
S3152000088099E7C046B0150020EC150020FC15002085
S31520000890000C024004160020102700009C150020A2
S315200008A02415002010160020400D030080B584B0CA
S315200008B000AF0200FB1D1A700C4A0F217B18127D17
S315200008C01A70FA1D7B1812781B781343DAB20800C7
S315200008D07B1804210A431A70044A01007B181B78EE
S315200008E01375C046BD4604B080BDC0460010024008
S315200008F080B584B000AF0200FB1D1A700D4A0F218F
S315200009007B18127D1A70FB1D1B785BB2DB435BB232
S31520000910042213435BB27A18127852B213405AB2A9
S315200009207B181A70034A7B181B781375C046BD4680
S3152000093004B080BD0010024080B582B000AF020036
S31520000940FB1D1A704020FFF7B1FF064AFB1D1B78DE
S3152000095053754020FFF7CCFF00F0F2FCC046BD46A1
S3152000096002B080BD0010024080B582B000AF4020AA
S31520000970FFF79CFF00F0E4FC00F0E2FC064AFB1DBA
S31520000980527C1A704020FFF7B3FFFB1D1B7818001E
S31520000990BD4602B080BDC0460010024080B582B080
S315200009A000AF0200FB1D1A700320FFF7A1FFFB1DFD
S315200009B01B781800FFF7C0FFC046BD4602B080BDB9
S315200009C080B582B000AF0200FB1D1A700120FFF730
S315200009D06DFF0220FFF78CFFFB1D1B781800FFF729
S315200009E0ABFFC046BD4602B080BD90B583B000AF18
S315200009F00B4B0C4A1A600120FFF77AFF0220FFF703
S31520000A0055FFFC1DFFF7B0FF03002370044B064A79
S31520000A101A60FB1D1B781800BD4603B090BDC0466A
S31520000A2000100240555500005555555590B583B0D8
S31520000A3000AF0B4B0B4A1A600120FFF737FF02204D
S31520000A40FFF734FFFC1DFFF78FFF03002370044BD5
S31520000A50054A1A60FB1D1B781800BD4603B090BDE1
S31520000A6000100240555500005555555580B582B0A9
S31520000A7000AF02003960FB1D1A70C046FFF7B5FFB4
S31520000A8003001A0080231340802BF7D0082000F0A3
S31520000A907BFCFB1D1B781800FFF780FF3B681800C6
S31520000AA000F072FCC046BD4602B080BD80B582B063
S31520000AB000AF02003960FB1D1A70C046FFF795FF94
S31520000AC003001A0080231340802BF7D0082000F063
S31520000AD05BFCFB1D1B781800FFF772FF3B681800B4
S31520000AE000F052FCC046BD4602B080BD80B500AFC6
S31520000AF0FA23DB0019000120FFF7B8FF2821382050
S31520000B00FFF7B4FF28210E20FFF7B0FF282106208B
S31520000B10FFF7ACFFC046BD4680BD80B584B000AFB0
S31520000B200200FB1D1A70BB1D0A1C1A700F23FB182E
S31520000B30FA1D1278013A1A70BB1D1B78012B05D9B4
S31520000B400F22BB18BA18127840321A700F23FB18DE
S31520000B501B78802252421343DBB228211800FFF76C
S31520000B6085FFC046BD4604B080BD80B582B000AFCB
S31520000B700200FB1D1A70FB1D1B782B211800FFF7A6
S31520000B8095FFC046BD4602B080BD80B582B000AF9D
S31520000B90786006E07B685A1C7A601B781800FFF79D
S31520000BA0E4FF7B681B78002BF4D1C046BD4602B01B
S31520000BB080BDC04680B584B000AF0200FB1D1A7010
S31520000BC00C4A0F217B18127D1A70FB1D1B785BB215
S31520000BD0042293435AB27B181B785BB213435AB252
S31520000BE07B181A70034A7B181B781375C046BD46BE
S31520000BF004B080BD0010024080B584B000AF020072
S31520000C00FB1D1A700D4A0F217B18127D1A70FB1DD1
S31520000C101B78DB43DBB27A1812781340DAB208006D
S31520000C207B1804218A431A70044A01007B181B781A
S31520000C301375C046BD4604B080BDC04600100240B4
S31520000C4080B582B000AF0200FB1D1A70FB1D1B7819
S31520000C50082B0CD002DC002B05D01AE0102B0DD06F
S31520000C60182B12D015E01820FFF7C6FF11E0082038
S31520000C70FFF7A0FF1020FFF7BFFF0AE01020FFF7C5
S31520000C8099FF0820FFF7B8FF03E01820FFF792FF2F
S31520000C90C046C046BD4602B080BD80B582B000AF1A
S31520000CA04020FFF7A9FF154B154A1A600220FFF7CF
S31520000CB081FF0120FFF7A0FF00F054FB4020FFF743
S31520000CC079FF00F04FFB0D4B5B7CDAB2FB1D7F21D9
S31520000CD08A431A704020FFF78FFF00F043FBFB1D6D
S31520000CE01B78002BEAD14020FFF764FF034B054A0F
S31520000CF01A60C046BD4602B080BDC0460010024004
S31520000D00555500005555555580B584B000AF0200A5
S31520000D10FB1D1A704020FFF76FFF1C4B1C4A1A6000
S31520000D200320FFF747FFFB1D1B781800FFF788FFFE
S31520000D3000F018FB4020FFF73DFF00F013FB134A9D
S31520000D400F23FB18527C1A704020FFF755FF0F4BDC
S31520000D50104A1A60FB1D1B780822134004D0082075
S31520000D60FFF76EFFFFF799FFFB1D1B78102213403C
S31520000D7004D00820FFF764FFFFF78FFF0F23FB182F
S31520000D801B781800BD4604B080BDC0460010024046
S31520000D90555500005555555580B582B000AF020017
S31520000DA0FB1D1A70BB1D0A1C1A701A4AFB1D1B78E4
S31520000DB05375BB1D1B781800FFF742FF00F0D2FACF
S31520000DC04020FFF7F7FE00F0CDFA4020FFF714FF92
S31520000DD0BB1D1B780822134004D00820FFF730FFE4
S31520000DE0FFF75BFFBB1D1B781022134004D0102099
S31520000DF0FFF726FFFFF751FF064B00225A754020CA
S31520000E00FFF7D8FE0020FFF71BFFC046BD4602B005
S31520000E1080BDC0460010024080B582B000AF0200FF
S31520000E20FB1D1A70BB1D0A1C1A704020FFF7E4FE3A
S31520000E30BB1D1B781800FFF703FF0320FFF7DCFE1E
S31520000E40BB1D1A78FB1D1B7811001800FFF7A4FFA5
S31520000E50C046BD4602B080BD80B582B000AF02005C
S31520000E60FB1D1A70BB1D0A1C1A704020FFF7C4FE1A
S31520000E70BB1D1B781800FFF7E3FE0220FFF7BCFE20
S31520000E800120FFF797FEBB1D1A78FB1D1B7811006A
S31520000E901800FFF781FFC046BD4602B080BD80B571
S31520000EA082B000AF0200FB1D1A70FB1D1B781800D4
S31520000EB0FFF72AFFFB1D1B781800FFF725FF03000D
S31520000EC01800BD4602B080BDB0B584B000AF0400A6
S31520000ED008001100FB1D221C1A70BB1D021C1A7073
S31520000EE07B1D0A1C1A70BB1D1B78013B002B00DAE8
S31520000EF00733DB101A000D23FB181A70BB1D1B7855
S31520000F00013B3E4A134004D5013B0822524213437B
S31520000F1001331A00012393401A000F23FB181A707D
S31520000F20FB1D1B78402B09D90E23FB1810221A70A3
S31520000F30FB1DFA1D1278413A1A7008E00E23FB18A1
S31520000F4008221A70FB1D1A78FB1D013A1A70FB1D28
S31520000F501B7840221343DAB20E257B191B78190021
S31520000F601000FFF759FF0D23FB181B784822524229
S31520000F701343DAB27B191B7819001000FFF74CFFD8
S31520000F800C23FC187B191B781800FFF788FF030039
S31520000F902370FB1D1B7840221343DAB27B191B7882
S31520000FA019001000FFF738FF7B1D1B78002B09D096
S31520000FB00F22BB18B9180C22BA18097812780A43DE
S31520000FC01A700DE00F217B181B785BB2DB435BB2F6
S31520000FD00C22BA18127852B213405AB27B181A70E1
S31520000FE00E23FB181A780F23FB181B781100180004
S31520000FF0FFF732FFC046BD4604B0B0BD07000080F3
S3152000100080B582B000AFFB1D00221A7023E0FB1DC5
S315200010101B78482252421343DBB218211800FFF7EF
S31520001020FBFE18214020FFF7F7FEBB1D00221A7099
S3152000103008E018210020FFF70FFFBB1D1A78BB1D03
S3152000104001321A70BB1D1B783F2BF2D9FB1D1A7873
S31520001050FB1D01321A70FB1D1B78072BD7D9C04602
S31520001060BD4602B080BD80B500AF4020FFF7A2FD8F
S315200010700A2000F089F97820FFF7BEFD1E2000F037
S31520001080A1F92020FFF796FD18213E20FFF7C4FE88
S3152000109018213F20FFF7C0FE1821C020FFF7BCFE15
S315200010A018214020FFF7B8FE1821B820FFF7B4FE1C
S315200010B00020FFF7C5FDC046BD4680BD80B500AF08
S315200010C0084B00221A70084B00221A60064BA722F2
S315200010D05A60054B00229A60034B07221A60C046CD
S315200010E0BD4680BD9C15002010E000E080B500AF15
S315200010F00A4B1B685A1E094B1A60084B1B68002BAB
S3152000110002D0FFF7DBFF05E0054B01221A70054BE5
S3152000111000221A60C046BD4680BDC04698150020F4
S315200011209C15002010E000E080B500AF044B054A76
S315200011301A60054B00221A70C046BD4680BDC046C7
S315200011403CC00120ED1000209C15002080B582B007
S3152000115000AF78607A68044B1A60FFF7AFFFC0468D
S31520001160BD4602B080BDC04698150020016070477C
S315200011704B425941054B49421940054B9C46614417
S31520001180002A01D0034B1943016070470000ABAA27
S315200011900000555555550000014B03607047C04669
S315200011A055555555002303607047C0461822014BFC
S315200011B01A6070473038024070B5002913D1FF23DA
S315200011C0AA26AA250C4C0F311B02F60102682240E2
S315200011D03243026082881A400A438280C3682340D1
S315200011E02B43C36070BDF021AA25AA26FF23034CFA
S315200011F009012D04F605E9E70000FFFFFFFF0000C7
S3152000120008239340DBB2002901D04375704703754C
S31520001210FCE7C04600290AD00F23427C1340002059
S31520001220002B03D0013040B25B08FBD170470F235F
S31520001230027C1340F3E7C046F0B585B06A46140039
S315200012400B4B0138E0CBE0C41B682360C3B2032BF1
S315200012500AD84B1EDBB2032B06D8800012180120B9
S3152000126052184042105600E0002005B0F0BDC0469E
S315200012701C1600200123F0B5C64605009C4608270B
S315200012800F2600B584B03B0062469340DBB20029AE
S3152000129017D06B75687C3040002807D00023DAB25F
S315200012A0531C5BB24008FAD1002B0ED1012398467D
S315200012B0C4446346052BE6D1102004B004BC9046F6
S315200012C0F0BD2B75287C3040E6E7E8464646074DBC
S315200012D092CD92C62D683560032AEED86446013C2D
S315200012E0A4004444E318013B1878E6E71C160020C6
S315200012F04B1E9941034B49421940034B9C4661447E
S3152000130001607047ABAA545555550000F0B585B01D
S315200013106C468C462500094BC2CBC2C561461B686C
S315200013202B604B1E9941411814310F2A03D8A35C18
S315200013300B7005B0F0BD00230B70FAE72C160020C9
S3152000134000232921064A13605160802193600533CA
S315200013501360490213680B42FCD0002313607047C8
S3152000136010E000E000235321064A136051608021DB
S31520001370936005331360490213680B42FCD00023A7
S315200013801360704710E000E08022F0B500240027AB
S31520001390532605250A4B800A52021F605E609F6015
S315200013A01D6019681142FCD01C601C605E609C6048
S315200013B01D6019681142FCD01C600138EDD2F0BDC9
S315200013C010E000E0020010B54001801A800080186D
S315200013D0C000FFF7D9FF10BD000051E34300000A0B
S315200013E001C020E000106142012051E22700000ADE
S315200013F00030B0E100306042010053E12600009A3F
S31520001400020011E12800000A0E0211E38111A00159
S315200014100820A0030120A013010251E3030051314B
S315200014200112A0310222A031FAFFFF3A020151E354
S31520001430030051318110A0318220A031FAFFFF3AFA
S315200014400000A0E3010053E1013043200200802187
S31520001450A10053E1A1304320A2008021210153E1C4
S315200014602131432022018021A10153E1A1314320D2
S31520001470A2018021000053E32222B0112112A011E3
S31520001480EFFFFF1A00005CE3000060421EFF2FE121
S3152000149000003CE1000060421EFF2FE10000A03367
S315200014A0CC0FA001010080031EFF2FE1010851E3AC
S315200014B02118A0211020A0230020A033010C51E3E5
S315200014C02114A02108208222100051E32112A021FC
S315200014D004208222040051E303208282A1208290EC
S315200014E000005CE33302A0E1000060421EFF2FE112
S315200014F0000050E30201E0C30201A0B3070000EAA6
S31520001500000051E3F9FFFF0A03402DE9B3FFFFEB8B
S315200015100640BDE8920003E0031041E01EFF2FE1E4
S315200015201EFF2FE100000000000000000000000068
S315200015300000000000000000000000000000000085
S315200015400000000000000000000000000000000075
S315200015500000000000000000000000000000000065
S315200015600000000000000000000000000000000055
S315200015700000000000000000000000000000000045
S315200015800000000000000000000000000000000035
S315200015900000000000000000000000000000000025
S315200015A02C15002000000000000000003200000082
S315200015B001004020A0150020C90400206906002053
S315200015C089060020BF0600200102030A0405060B37
S315200015D00708090C0E000F0D4C656E6774683A20DB
S315200015E000000000402000003F200000507265737C
S315200015F073203520746F20706C6179006167616992
S315200016006E2100004C656E6774683A203100000038
S3152000161047414D45204F5645522100000102030AFD
S315200016200405060B0708090C0E000F0D3F065B4F3D
S31520001630666D7D077F6F777C395E797100000000CB
S70520000000DA
