S01E00002E2F44656275672F63697263756C61725F6275666665722E73313935
S315200000000248854600F0AAF8FEE7C04600C0012057
S3152000001080B584B000AF78600A00FB1C1A707B683C
S315200000205B680133FB607B68DB68FA689A4201DB18
S315200000300023FB607B689B68FA689A4202D1012301
S315200000405B420BE07B681A687B685B68D318FA1CF6
S3152000005012781A707B68FA685A6000231800BD4629
S3152000006004B080BD80B584B000AF786039607B680D
S315200000705A687B689B689A4202D101235B4216E04C
S315200000807B685B68013BFB60FB68002B03DA7B68BF
S31520000090DB68013BFB607B68FA685A607B681A68FC
S315200000A07B685B68D3181A783B681A70002318009F
S315200000B0BD4604B080BD80B584B000AF78600A002C
S315200000C0FB1C1A707B689B68013BFB60FB68002B5E
S315200000D003DA7B68DB68013BFB607B685B68FA6858
S315200000E09A4202D101235B420BE07B681A687B6847
S315200000F09B68D318FA1C12781A707B68FA689A6083
S3152000010000231800BD4604B080BD80B584B000AF82
S31520000110786039607B685A687B689B689A4202D10E
S3152000012001235B4216E07B689B680133FB607B689A
S31520000130DB68FA689A4201DB0023FB607B68FA6879
S315200001409A607B681A687B689B68D3181A783B6824
S315200001501A7000231800BD4604B080BD80B582B059
S3152000016000AF0D4B05211800FFF752FFFA1D0A4B71
S3152000017011001800FFF776FF074B07211800FFF73D
S315200001809AFFFA1D044B11001800FFF7BEFFC04668
S31520000190BD4602B080BDC046A80100200000000078
S315200001A000000000000000009C010020000000006C
S30D200001B0000000000A00000017
S70520000000DA
